{
  "_format": "hh-sol-artifact-1",
  "contractName": "BCS",
  "sourceName": "contracts/bcs.sol",
  "abi": [
    {
      "inputs": [
        {
          "internalType": "address",
          "name": "_bcsVault",
          "type": "address"
        }
      ],
      "stateMutability": "nonpayable",
      "type": "constructor"
    },
    {
      "inputs": [
        {
          "internalType": "address",
          "name": "owner",
          "type": "address"
        }
      ],
      "name": "OwnableInvalidOwner",
      "type": "error"
    },
    {
      "inputs": [
        {
          "internalType": "address",
          "name": "account",
          "type": "address"
        }
      ],
      "name": "OwnableUnauthorizedAccount",
      "type": "error"
    },
    {
      "anonymous": false,
      "inputs": [
        {
          "indexed": true,
          "internalType": "address",
          "name": "previousOwner",
          "type": "address"
        },
        {
          "indexed": true,
          "internalType": "address",
          "name": "newOwner",
          "type": "address"
        }
      ],
      "name": "OwnershipTransferred",
      "type": "event"
    },
    {
      "anonymous": false,
      "inputs": [
        {
          "indexed": true,
          "internalType": "address",
          "name": "newVault",
          "type": "address"
        }
      ],
      "name": "VaultUpdated",
      "type": "event"
    },
    {
      "inputs": [
        {
          "internalType": "address payable",
          "name": "vendorAddr",
          "type": "address"
        },
        {
          "internalType": "bytes",
          "name": "encodedFunctionCall",
          "type": "bytes"
        },
        {
          "internalType": "uint256",
          "name": "paymentAmount",
          "type": "uint256"
        }
      ],
      "name": "callBCSVendor",
      "outputs": [],
      "stateMutability": "nonpayable",
      "type": "function"
    },
    {
      "inputs": [],
      "name": "owner",
      "outputs": [
        {
          "internalType": "address",
          "name": "",
          "type": "address"
        }
      ],
      "stateMutability": "view",
      "type": "function"
    },
    {
      "inputs": [],
      "name": "renounceOwnership",
      "outputs": [],
      "stateMutability": "nonpayable",
      "type": "function"
    },
    {
      "inputs": [
        {
          "internalType": "address",
          "name": "newOwner",
          "type": "address"
        }
      ],
      "name": "transferOwnership",
      "outputs": [],
      "stateMutability": "nonpayable",
      "type": "function"
    },
    {
      "inputs": [
        {
          "internalType": "address",
          "name": "_newVault",
          "type": "address"
        }
      ],
      "name": "updateVault",
      "outputs": [],
      "stateMutability": "nonpayable",
      "type": "function"
    }
  ],
  "bytecode": "0x608060405234801561001057600080fd5b5060405161070d38038061070d83398101604081905261002f91610209565b338061005657604051631e4fbdf760e01b8152600060048201526024015b60405180910390fd5b61005f8161006f565b50610069816100bf565b50610239565b600080546001600160a01b038381166001600160a01b0319831681178455604051919092169283917f8be0079c531659141344cd1fd0a4f28419497f9722a3daafe3b4186f6b6457e09190a35050565b6100c76101da565b6001600160a01b03811661011d5760405162461bcd60e51b815260206004820152601c60248201527f5661756c7420616464726573732063616e6e6f74206265207a65726f00000000604482015260640161004d565b6001546001600160a01b03908116908216036101905760405162461bcd60e51b815260206004820152602c60248201527f5661756c74206164647265737320697320616c72656164792073657420746f2060448201526b74686973206164647265737360a01b606482015260840161004d565b600180546001600160a01b0319166001600160a01b0383169081179091556040517f161584aed96e7f34998117c9ad67e2d21ff46d2a42775c22b11ed282f3c7b2cd90600090a250565b6000546001600160a01b031633146102075760405163118cdaa760e01b815233600482015260240161004d565b565b60006020828403121561021b57600080fd5b81516001600160a01b038116811461023257600080fd5b9392505050565b6104c5806102486000396000f3fe608060405234801561001057600080fd5b50600436106100575760003560e01c8063143eaa2f1461005c578063715018a6146100715780638da5cb5b14610079578063e7563f3f14610098578063f2fde38b146100ab575b600080fd5b61006f61006a366004610396565b6100be565b005b61006f610197565b600054604080516001600160a01b039092168252519081900360200190f35b61006f6100a6366004610421565b6101ab565b61006f6100b9366004610421565b6102c6565b6100c6610304565b600081116101295760405162461bcd60e51b815260206004820152602560248201527f5061796d656e7420616d6f756e74206d75737420626520677265617465722074604482015264068616e20360dc1b60648201526084015b60405180910390fd5b60015460405163143eaa2f60e01b81526001600160a01b039091169063143eaa2f9061015f908790879087908790600401610445565b600060405180830381600087803b15801561017957600080fd5b505af115801561018d573d6000803e3d6000fd5b5050505050505050565b61019f610304565b6101a96000610331565b565b6101b3610304565b6001600160a01b0381166102095760405162461bcd60e51b815260206004820152601c60248201527f5661756c7420616464726573732063616e6e6f74206265207a65726f000000006044820152606401610120565b6001546001600160a01b039081169082160361027c5760405162461bcd60e51b815260206004820152602c60248201527f5661756c74206164647265737320697320616c72656164792073657420746f2060448201526b74686973206164647265737360a01b6064820152608401610120565b600180546001600160a01b0319166001600160a01b0383169081179091556040517f161584aed96e7f34998117c9ad67e2d21ff46d2a42775c22b11ed282f3c7b2cd90600090a250565b6102ce610304565b6001600160a01b0381166102f857604051631e4fbdf760e01b815260006004820152602401610120565b61030181610331565b50565b6000546001600160a01b031633146101a95760405163118cdaa760e01b8152336004820152602401610120565b600080546001600160a01b038381166001600160a01b0319831681178455604051919092169283917f8be0079c531659141344cd1fd0a4f28419497f9722a3daafe3b4186f6b6457e09190a35050565b6001600160a01b038116811461030157600080fd5b600080600080606085870312156103ac57600080fd5b84356103b781610381565b9350602085013567ffffffffffffffff808211156103d457600080fd5b818701915087601f8301126103e857600080fd5b8135818111156103f757600080fd5b88602082850101111561040957600080fd5b95986020929092019750949560400135945092505050565b60006020828403121561043357600080fd5b813561043e81610381565b9392505050565b6001600160a01b038516815260606020820181905281018390528284608083013760006080848301015260006080601f19601f86011683010190508260408301529594505050505056fea26469706673582212203de403e186fd380028c7933eb62d148fb4a28bdd6d5c20c3290011c947a3e9a864736f6c63430008180033",
  "linkReferences": {},
  "deployedLinkReferences": {}
}